:020000040800F2
:10000000D005002001010008531A0008511800080B
:10001000511A0008B3080008092100080000000078
:10002000000000000000000000000000571A000857
:100030005509000800000000551A0008511C00086E
:100040001B0100081B0100081B0100081B01000820
:100050001B0100081B0100081B0100081B01000810
:100060001B0100081B0100081B0100081B01000800
:100070001B0100081B0100081B0100081B010008F0
:100080001B0100081B0100081B0100081B010008E0
:100090001B0100081B0100081B0100081B010008D0
:1000A0001B0100081B0100081B0100081B010008C0
:1000B0001B0100081B0100081B0100081B010008B0
:1000C0001B0100081B0100081B0100081B010008A0
:1000D0001B0100081B010008FD2000081B0100088F
:1000E0001B0100081B0100081B010008DFF80CD0F1
:1000F00000F06CFB0048004779250008D00500207F
:100100000648804706480047FEE7FEE7FEE7FEE7B1
:10011000FEE7FEE7FEE7FEE7FEE7FEE7A51C0008B8
:10012000ED000008202A04DB203A21FA02F0002129
:10013000704721FA02F3D040C2F1200291400843F7
:1001400019467047D2B201E000F8012B491EFBD2DC
:1001500070470022F6E710B513460A4604461946D2
:10016000FFF7F0FF204610BD421C10F8011B0029CC
:10017000FBD1801A704730B505460020034600E0E9
:100180005B1C934205D2EC5CC85C201A01D1002CA8
:10019000F6D130BD70B5064601F0D8FF04680546BB
:1001A0000A220021304600F044FA2C6070BD2DE98F
:1001B000FE4F804681EA0300C00F0C46009021F0FC
:1001C000004123F00045B8EB0200A94105D24046AA
:1001D000214690461C460B46024623F00040104341
:1001E00047D0270DC7F30A00C3F30A510290401A03
:1001F000019040286BDAC3F3130040F4801B009891
:10020000924620B10023D2EB030A63EB0B0B01985B
:100210005946C0F14002504600F0EAF906460D4644
:1002200050465946019A00F0F2F910EB080061417E
:10023000002487EA115284EAE7731A4340D0009AF7
:1002400062B3019A012A4FEA075215DC001B61EBE9
:1002500002014FF0004202EA0752CDE90042001CC1
:1002600041F5801132462B4600F061FA03B0BDE83B
:10027000F08F40462146F9E7001B61EB0201001CAC
:1002800041F5801300185B412018A2F5001747EBD9
:10029000030140EAD570B6196D4111E06D084FEACF
:1002A000360645EAC0754FEA0752001B61EB0201B2
:1002B000001C41F5801149084FEA300000195141F6
:1002C00032462B4603B0BDE8F04F00F021BA00984B
:1002D000012240000023D0EB020263EBE0730098A0
:1002E00021464FEAE074B8EB000061EB0401E9E756
:1002F00083F000435BE781F0004158E72DE9FE4FB2
:1003000081EA030404F0004421F0004100944FF01E
:10031000000B23F0004350EA01045ED052EA0304CC
:100320005BD0C3F30A54C1F30A552C44A4F2F3344E
:100330000194A0FB0254C1F3130141F48011C3F3F3
:10034000130343F4801301FB024400FB034E840AB1
:10035000970A44EA815447EA8357A4FB0768029549
:100360008D0A05FB07854FEA932C04FB0C542705E7
:10037000029D4FEA065847EA1637B5EB08056EEBC3
:10038000070C870E920E47EA811742EA8312A7FBF9
:100390000201B6EB0B0164EB00042B0D43EA0C33B6
:1003A0005E1844EB1C50DA465146E7FB0201C5F3E8
:1003B00013044FEA0B3343EA14534FEA0432019C0F
:1003C00043EA0603A4F10C040294009CCDE900B4B6
:1003D00000F0ADF903B0BDE8F08F00200146F9E769
:1003E0002DE9F04D81EA030404F0004B21F00045B3
:1003F00014464FF0000A23F0004150EA050220D0D5
:1004000054EA01021DD0C5F30A570246C5F313038F
:10041000C1F31300C1F30A5640F4801543F480136E
:10042000A7EB0608101BD64608F2FD3873EB050053
:1004300002D308F1010801E092185B41B8F1000F06
:1004400003DA00200146BDE8F08D00204FF4801152
:10045000064684460EE0171B73EB050705D3121BF7
:1004600063EB050306434CEA010C49084FEA3000F0
:1004700092185B4150EA0107EDD152EA030012D015
:1004800082EA040083EA0501084305D0101BAB4152
:1004900006D20122002306E000224FF0004302E0D2
:1004A0006FF0010253101AEB06004CEB085110EBF1
:1004B0000A0041EB0B01BDE8F04D00F029B9C10F76
:1004C00080EAE0700844CA079623002100F0F2B8E1
:1004D0000EB5C10F80EAE0700844CA07002140F25F
:1004E00033438DE80E000A460B4600F020F903B0B6
:1004F00000BD70B5C1F30A5201F000450024C1F3FC
:10050000130140F2FF3341F480119A4201DA0020D6
:1005100070BD40F233439A42A2F2334203DC5242AE
:10052000FFF700FE00E090402C43F1D0404270BD48
:1005300000F0004230F000400AD0C10D01F56071BA
:10054000C0F3160042EA0151C20840071143704748
:1005500000200146704701F0004330B421F0004113
:1005600050EA010206D00A0DA2F56072C1F3130130
:10057000002A02DC30BC00207047440F44EAC1046A
:10058000C100E01830BC00EBC25000F08AB82DE981
:10059000F05F0546002092469B4688460646814607
:1005A00040241BE02846414647462246FFF7BAFD55
:1005B00053465A46C01A914110D311461846224656
:1005C00000F016F82D1A67EB01084F46224601206D
:1005D000002100F00DF817EB00094E41201EA4F198
:1005E0000104DFDC484631462A464346BDE8F09F19
:1005F000202A04DB203A00FA02F1002070479140E3
:10060000C2F1200320FA03F3194390407047202AD7
:1006100006DBCB17203A41FA02F043EAE07306E02A
:1006200041FA02F3D040C2F120029140084319463A
:1006300070472DE9F04791460F4680460446002654
:1006400014F8015B2DB100F0D3F80068405DC007DD
:10065000F6D12B2D02D02D2D18D0641E4A463946D6
:10066000204600F0C9F827B13968A14201D1C7F886
:10067000008071054FF002040BD54042002803DDD5
:1006800001F064FD0460A007BDE8F08746F48066D1
:10069000E4E70028F8DA01F059FD04606FF000404B
:1006A000F2E70029A8BF7047401C490008BF20F0AE
:1006B0000100704710B4B0FA80FC00FA0CF050EA68
:1006C000010404BF10BC704749B1CCF1200421FAE9
:1006D00004F411FA0CF118BF012121430843A3EBE4
:1006E0000C01CB1D4FEA00614FEA102042BF0020F1
:1006F00010BC704700EBC35010440029A4BF10BCCD
:100700007047401C490008BF20F0010010BC704732
:1007100010B5141E73F1000408DA401C41F1000109
:1007200092185B411A4301D120F0010010BD2DE960
:10073000F04D92469B4611B1B1FA81F202E0B0FA57
:1007400080F220329046FFF753FF04460F4640EAFE
:100750000A0041EA0B0153465A46084313D011469A
:1007600053EA010019D0C8F140025046FFF7DAFC05
:1007700005460E46504659464246FFF739FF0843A4
:1007800005D0012004E020463946BDE8F08D002068
:10079000054346EAE0762C4337430A986305E40AAA
:1007A000A0EB08000022FD0A44EA47540A3002D5B3
:1007B00000200146E9E7010510196941DDE9084516
:1007C00000196941BDE8F04DA2E70000064C074D55
:1007D00006E0E06840F0010394E807009847103411
:1007E000AC42F6D3FFF786FCB8280008D8280008EA
:1007F000004870475C2800082DE9F05F82460078C9
:10080000002715468B460AF10104B946302801D06D
:100810009DB113E014F8010B0127782803D0582864
:1008200001D045B10AE00DB1102D07D100271025E8
:1008300014F8010B02E0082500E00A250026B04666
:100840000EE005FB080005FB06F1012701EB104651
:100850001FFA80F8B6F5803F00D3B94614F8010BB3
:10086000294600F018F80028EBDABBF1000F05D09C
:100870000FB1641E00E05446CBF80040B9F1000F00
:1008800006D001F063FC02210160C81EBDE8F09FA4
:1008900048EA0640FAE73A2800D2303820F0200231
:1008A000412A01D3A2F13700884201D34FF0FF3033
:1008B0007047FEE770B50A4D064600243046FFF744
:1008C00053FC024655F824103046FFF754FC28B17B
:1008D000641C162CF2DB4FF0FF3070BD204670BD5B
:1008E0000000002000B587B06021CDE90010002095
:1008F0000290049008226946064800F02DFD082168
:10090000044800F0C1FD00220421034800F0A9F9C9
:1009100007B000BD8C0000200018014000B587B072
:100920006021CDE900100020029004900C2269465D
:10093000064800F011FD0C21044800F0A5FD00223E
:100940000821034800F08DF907B000BD8C0000209D
:100950000018014070470000A0F10E01144B15482B
:10096000082924D2DFE801F004080D1116191C1F14
:1009700000224FF4005102E000224FF4804118465B
:1009800013E000224FF40041F9E700224FF4807198
:1009900009480AE00022802107E00022102104E03B
:1009A0000022202101E00022402100F05AB97047C6
:1009B000000C0140000801400014014010B590F8FF
:1009C00021100024022903D00421816301243DE089
:1009D00001680A6822F00E020A6001680A6822F0C3
:1009E00001020A601A4A0168914201D1012121E005
:1009F000174A1432914201D110211BE0144A2832C7
:100A0000914201D1891515E0114A3C32914201D140
:100A100089140FE00E4A5032914202D14FF48031D6
:100A200008E00B4A6432914202D14FF4801101E098
:100A30004FF08071064A083A5160012180F8211078
:100A4000002180F82010416B01B18847204610BD7D
:100A50000800024070B5044600F008F90546601C25
:100A600002D004480078044400F000F9401BA04282
:100A7000FAD370BD740000202DE9F84FDFF8B8916B
:100A8000002409F1040A0AF1040B23460F270BF195
:100A9000040EC9E00125A5402A40AA427DD1674E37
:100AA000D1F804C0ACEB0608B44532D014DCBCF17C
:100AB000030F3AD009DCBCF1000F2AD0BCF1010FC2
:100AC0001CD0BCF1020F31D11DE0BCF1110F17D0C9
:100AD000BCF1120F2AD119E0B8F5881F19D006DC35
:100AE000B8F5803F15D0B8F5801F1FD111E0B8F5DB
:100AF000001F0ED0B8F5041F18D10AE0CB6815E02E
:100B0000CB681B1D12E0CB6808330FE0CB680C33B9
:100B10000CE08B682BB1012B4FF0080303D045612B
:100B200004E0042302E0056100E00023FF2A01D86D
:100B3000064601E000F104064FEA840501D9A5F15B
:100B40002005D6F8008007FA05FC28EA0C0803FA0D
:100B500005F548EA0508C6F800804D68ED0062D545
:100B6000374DAE6946F00106AE61AD6924F003066B
:100B700005F001050095334D06EB050CDCF8085037
:100B8000A607360F07FA06F825EA0805DFF8B88049
:100B9000404503D14FF0000817E044E0DFF8AC8097
:100BA000404502D14FF001080FE0DFF8A480404536
:100BB00002D14FF0020808E0DFF89880404502D1EA
:100BC0004FF0030801E04FF0040808FA06F848EA7D
:100BD0000508CCF808804D68D9F80060ED034D4653
:100BE00001D5164300E096432E604D68DAF80060A8
:100BF000AD03554601D5164300E096432E604D687F
:100C0000DBF80060ED025D4601D5164300E0964337
:100C10002E604D68DEF80060AD02754601D51643C2
:100C200000E096432E60641C0D682A46E5407FF480
:100C300031AFBDE8F88F0000000401400000111042
:100C4000001002400000014000080140000C01407B
:100C500000100140001401408068084000D00120CD
:100C600070470AB1016170470904FBE701488068D9
:100C70007047000074000020024881680278114427
:100C80008160704774000020074810B5016841F08A
:100C900010010160032000F075F8002000F006F854
:100CA00000F024F8002010BD0020024070B50D4D6A
:100CB00004464FF47A712878B1FBF0F00A490968CC
:100CC000B1FBF0F000F0ECFA48B9102C07D200228A
:100CD0002146501E00F036F800206C6070BD0120E7
:100CE00070BD000074000020800000200C4808B592
:100CF000816941F001018161816901F00101009187
:100D0000C16941F08051C161C06900F0805000901C
:100D10000448416821F0E06141F00071416008BD84
:100D20000010024000000140002809DB00F01F0213
:100D3000012191404009800000F1E020C0F800113D
:100D400070470000F0B40E4B1B680C46C3F302233F
:100D5000C3F10705042D00D90425191D072901D267
:100D6000002300E0DB1E012606FA05F1491E2140A2
:100D700099409E40761E16403143F0BC01F0D6B932
:100D80000CED00E0064900F0070208684FF6FF038B
:100D9000184040EA0220034A1043086070470000F0
:100DA0000CED00E00000FA052DE9F0470F460500C4
:100DB00061D0434E306800F00700B84209D2306875
:100DC00020F0070038433060306800F00700B84278
:100DD00051D128683B4C810712D5400703D5606884
:100DE00040F4E06060602878000703D5606840F454
:100DF000605060606068A96820F0F000084360609F
:100E00002878C00728D06868012810D021680228F7
:100E100010D0890700292EDA616821F0030101430F
:100E20006160FFF723FF804641F288390DE02168B9
:100E30008903EFE78901EDE7FFF718FFA0EB080151
:100E4000494502D90320BDE8F0876068696800F071
:100E50000C00B0EB810FEFD1306800F00700B84212
:100E60000BD9306820F0070038433060306800F05C
:100E70000700B84201D00120E5E72878400705D5F2
:100E80006068E96820F4E060084360602878000743
:100E900006D56068296920F4605040EAC1006060AE
:100EA00000F038F86168084AC1F30311515CC8408A
:100EB0000649086006480068FFF7F8FE0020C2E710
:100EC0000020024000100240C027000880000020DF
:100ED000780000200448054900684968044AC1F3C5
:100EE0000221515CC8407047800000200010024081
:100EF000D02700080448054900684968044AC1F33E
:100F0000C221515CC84070478000002000100240A0
:100F1000D027000812A185B00FC98DE80F0014A0DA
:100F2000144A006804905168134801F00C03042B24
:100F300010D0082B0ED1C1F38343C9031DF8030061
:100F40000AD5516804AAC1F34041515C0A4A504392
:100F5000B0FBF1F005B0704708494843FAE70000DC
:100F600002030405060708090A0B0C0D0E0F1010EA
:100F7000010200000010024000127A0000093D004A
:100F80002DE9F84F040070D02078C04DC00749D03B
:100F90006868C0F38100012807D06868C0F3810049
:100FA000022809D16868C00306D52868800339D5AE
:100FB00060680028E7D035E06068B0F5803F0BD06E
:100FC00010B1B0F5A02F11D0286820F4803028602F
:100FD000286820F4802002E0286840F480302860EF
:100FE000606890B1FFF742FE06460AE0286840F4C8
:100FF00080202860F0E700BFFFF738FE801B6428E0
:1010000073D828688003F7D50CE0FFF72FFE06465B
:1010100005E000BFFFF72AFE801B6428F0D828688F
:101020008003F7D420789A4E80074FF001094FF0E3
:10103000000839D5686810F00C0F07D06868C0F355
:101040008100022809D16868C00306D42868800797
:1010500014D52069012808D110E02069B0B1C6F884
:101060000090FFF703FE074605E00AE1FFF7FEFDEB
:10107000C01B0228C4D828688007F7D52868616992
:1010800020F0F80040EAC10028600DE0C6F80080BA
:10109000FFF7ECFD074604E0FFF7E8FDC01B022860
:1010A00023D828688007F7D4207800072CD5794802
:1010B000A169D9B1C0F80090FFF7D8FD074604E058
:1010C000FFF7D4FDC01B02280FD8686A8007F7D548
:1010D00071484FF4FA510068B0FBF1F0009000BF86
:1010E0000098411E0091FAD20EE080E0C0F8008026
:1010F000FFF7BCFD074604E0FFF7B8FDC01B022860
:1011000075D8686A8007F7D42078400760D5E86909
:101110000027C00008D4E86940F08050E861E86921
:10112000012700F0805000905C480168C90513D485
:101130000168834641F480710160FFF797FD8246A4
:1011400006E000BFFFF792FDA0EB0A0064284ED82E
:10115000DBF80000C005F5D5E06801280AD008B129
:10116000052813D0286A20F001002862286A20F0A0
:10117000040002E0286A40F001002862E06841F2C1
:10118000883B98B1FFF772FD82460BE0286A40F079
:1011900004002862EEE700BFFFF768FDA0EB0A013C
:1011A00059455AD8286A8007F6D50CE0FFF75EFD4E
:1011B000824605E0FFF75AFDA0EB0A0159454CD8DD
:1011C000286A8007F6D41FB1E86920F08050E861F2
:1011D000E06988B36968C1F38101022944D002281B
:1011E000C6F8608004D0FFF741FD044638E034E0E3
:1011F000FFF73CFD074604E0FFF738FDC01B02285F
:101200002BD828688001F7D4206AB0F5803F05D13B
:101210006868A16820F4003008436860D4E90801D8
:101220000843696821F4741108436860C6F8609047
:10123000FFF71CFD044606E025E000BFFFF716FDA2
:10124000001B022809D828688001F7D51BE000BFE1
:10125000FFF70CFD001B022802D90320BDE8F88F20
:1012600028688001F4D40EE00128F7D06868226A6B
:1012700000F48031914204D1616A00F47010884218
:1012800001D00120EAE70020E8E70000001002405A
:101290000000424280044242800000200070004072
:1012A00010B5401EB0F1807F01D3012010BD4FF07A
:1012B000E02460610F21601700F038FF0020A0617A
:1012C00007202061002010BD70B590F83C20012A55
:1012D00019D0012400F83C4F0222427050F83C3CE7
:1012E0005A689D6822F070060A684968324325F002
:1012F000800529435A6050F83C2C916044700021CD
:101300000170084670BD022070BD000000B585B0B8
:101310000021009101910291039100680B498842DC
:1013200012D10B48816941F00801816180696946E9
:1013300000F0080004904FF44070009002200190EB
:1013400003900448FFF798FB05B000BD000800407B
:1013500000100240000C014070B5044690F83C00BB
:101360000D4601280DD0012684F83C60022084F847
:101370003D0042B1042A18D0082A2AD00C2A4DD1A7
:1013800039E0022070BD206800F0F4FC206881691B
:1013900041F0080181612068816921F004018161C7
:1013A000206881692A69114311E0206800F00AFD74
:1013B0002068816941F4006181612068816921F4BC
:1013C00080618161206881692A6941EA0221816125
:1013D00024E0206800F022FD2068C16941F0080186
:1013E000C1612068C16921F00401C1612068C1693F
:1013F0002A69114311E0206800F03CFD2068C169B2
:1014000041F40061C1612068C16921F48061C1615A
:101410002068C1692A6941EA0221C16184F83D60FE
:10142000002084F83C0070BD10B5040003D094F88F
:101430003D0010B107E0012010BD002084F83C0001
:10144000204600F00DF8022084F83D00211D2068A0
:1014500000F04CFC012084F83D00002010BD00008D
:1014600008B500680649884208D10648C16941F0BC
:101470000401C161C06900F00400009008BD0000D3
:10148000000800400010024010B504460068012228
:1014900000F062FC09492068884203D1416C41F4A4
:1014A000004141642068816801F00701062903D0EA
:1014B000016841F001010160002010BD002C0140D5
:1014C0007047000070B5026804461068D16853691F
:1014D00010F00F0F50D003F0010501F49076354362
:1014E0005DD0C20705D0CA0503D5E26B42F0010208
:1014F000E263420705D5DA0703D0E26B42F002024D
:10150000E263820705D5DA0703D0E26B42F00402FA
:10151000E263020705D5DA0703D0E26B42F0080266
:10152000E263E26B002A33D0800604D5880602D538
:10153000204600F0D7FC20684069E16BC0F38010C2
:10154000090700D428B3204600F0BEFC206841699A
:1015500049061AD5416921F040014161606BA0B193
:101560001B494163606BFFF729FA002810D0606BBC
:10157000416BBDE870400847830610D58B060ED539
:101580002046BDE8704000F0ADBC2046FFF798FF54
:1015900070BD2046FFF794FF0020E06370BD030696
:1015A00006D50B0604D52046BDE8704000F042BDCC
:1015B0004006F3D54806F1D5D168204621F0400118
:1015C000D160202184F8391000F041F970BD00008D
:1015D000B91E000870B5040004D094F83900002545
:1015E00010B106E0012070BD84F83850204600F0AC
:1015F00023F8242084F839002068C16821F40051C0
:10160000C160204600F0BAFC2068016921F49041D5
:1016100001612068416921F02A0141612068C168A7
:1016200041F40051C160E563202084F8390084F85A
:101630003A00002070BD000070B586B00024009410
:101640000194029403942B4E03682B490220032239
:101650002A4DB34221D18B6943F480438B618B695E
:1016600003F4804304938B6943F004038B6189691D
:10167000039201F0040104910102CDE900106946D2
:101680002846FFF7F9F92815CDE9000469462846F0
:101690000294FFF7F1F906B070BD194EB342FAD1CA
:1016A000CB6943F40033CB61CB6903F4003304937B
:1016B0008B6943F004038B618969039201F0040193
:1016C00004910421CDE9001069462846FFF7D4F9BA
:1016D0000820CDE90004694628460294FFF7CCF9BA
:1016E000002211462620FFF72DFB2620FFF71CFBCA
:1016F000D1E700000038014000100240000801401E
:101700000044004090F83A30202B22D1F9B1F2B1D8
:1017100090F83830012B1CD081628285C28500216F
:10172000C163222280F83A2080F838100168CA6824
:1017300042F48072CA6001684A6942F001024A615B
:101740000068C16841F02001C1600020704701209D
:1017500070470220704700000C49884214D10C48A1
:1017600001F140020178C3785354491CC9B2017099
:10177000114411F8011C09B9012101710449012228
:10178000C91C0248FFF7BEBF704700000C010020D3
:10179000580000202DE9F843044690F839001F4610
:1017A00016460D46202850D1A5B19EB194F83800B8
:1017B00001284AD0012084F838004FF00008C4F80E
:1017C0003C80212084F83900FFF750FAA684814636
:1017D000E68426E00120BDE8F883E08C401EE0842A
:1017E000A0684B46B0F5805F4FF000024FF08001DB
:1017F0002046009703D000F04EFCE8B90DE000F061
:101800004AFCC8B928882168C0F3080048602069EC
:1018100008B16D1C05E0AD1C03E0216815F8010B53
:101820004860E08C0028D8D14B4600224021204659
:10183000009700F030FC08B10320CCE7202084F8AA
:10184000390084F838800020C5E70220C3E77047DC
:10185000FEE700002DE9F04F85B0002456480094C3
:10186000019402940394816941F04001816181698E
:1018700001F040010491816941F0040181618169B5
:1018800001F004010491816941F0100181618169D5
:1018900001F010010491816941F0080181618169C1
:1018A00001F008010491816941F0200181618069A2
:1018B000DFF808B100F02000049001220C21584606
:1018C000FFF7CFF94FF41F67012239463C48FFF775
:1018D000C8F94EF21808012241463A48FFF7C1F90B
:1018E00043F24A39012249463748FFF7BAF94FF423
:1018F000C65A012251463548FFF7B3F90C2001259D
:101900000226CDE90005CDE9024669465846FFF7B3
:10191000B3F84FF6B070CDE900046946584602941A
:10192000FFF7AAF800970396CDE9015469462448C9
:10193000FFF7A2F84FF4E660CDE9000469462348BA
:101940000294FFF799F841F22340CDE9000469467B
:101950001C480294FFF790F8CDF800800396CDE97B
:10196000015469461748FFF787F8CDF800900396B1
:10197000CDE9015469461448FFF77EF84CF6B540AE
:10198000CDE90004694610480294FFF775F8CDF8D8
:1019900000A00396CDE9015469460C48FFF76CF8A6
:1019A0002803CDE90004694605480294FFF764F86E
:1019B00005B0BDE8F08F00000010024000180140A3
:1019C00000080140000C01400014014000100140DB
:1019D00030B589B0002407941C2168460894FEF7AE
:1019E000B8FB1A4D1848286040F2CF20C5E9010421
:1019F00040F2F310C5E903042846AC61FFF714FD7B
:101A0000079407A928460894FFF75EFC6020CDE9FB
:101A1000000402940822694628460494FFF79CFCBF
:101A20002868C16921F00801C1610C226946284675
:101A3000FFF792FC2868C16921F40061C161284662
:101A4000FFF764FC09B030BD000800408C000020A6
:101A5000FEE77047704770472DE9F04701460120C7
:101A60000603774C4702774DDFF8DC81774B4FF464
:101A700080694FF4006A0E2974D2DFE801F0071480
:101A80002333445564748392A1B0BFCE0022314603
:101A90002046FFF7E6F86420FEF7DCFF49462046C3
:101AA000FFF7DAF8C8E0002239462046FFF7D9F8F8
:101AB0006420FEF7CFFF51462046FFF7CDF840F0F7
:101AC0001000B9E0002240212846FFF7CAF8642040
:101AD000FEF7C0FF4FF480412046FFF7BDF840F00D
:101AE0002000A9E000224FF400512046FFF7B9F88A
:101AF0006420FEF7AFFF4FF400412046FFF7ACF83B
:101B000040F0300098E04FF48074002221464046B7
:101B1000FFF7A7F86420FEF79DFF21462846FFF750
:101B20009BF840F0400087E0002280212846FFF724
:101B300098F86420FEF78EFF39462846FFF78CF8A8
:101B400040F0500078E0002251462846FFF789F81F
:101B50006420FEF77FFF31464046FFF77DF840F0F6
:101B6000600069E06AE0002251464046FFF779F8DC
:101B70006420FEF76FFF49462846FFF76DF840F0F6
:101B8000700059E0002231462846FFF76AF86420C9
:101B9000FEF760FF01212046FFF75EF840F080006D
:101BA0004AE0002202212046FFF75BF86420FEF79E
:101BB00051FF04212046FFF74FF840F090003BE032
:101BC000002240212046FFF74CF86420FEF742FF38
:101BD00010212046FFF740F840F0A0002CE0002242
:101BE00008212046FFF73DF86420FEF733FF20214F
:101BF0002046FFF731F840F0B0001DE00022102130
:101C00001846FFF72EF86420FEF724FF80212046B7
:101C1000FFF722F840F0C0000EE0002208211C4629
:101C20001846FFF71EF86420FEF714FF2021204617
:101C3000FFF712F840F0D00040F00800BDE8F08750
:101C4000001401400010014000080140000C014058
:101C5000FFF712B830B58FB028216846FEF779FA41
:101C600014210AA8FEF775FA01210804CDE9001035
:101C70000024029402250491CDE907504FF4E010AE
:101C800009906846FFF77CF90F20CDE90A05680244
:101C9000CDE90C4002210AA80E94FFF785F80FB099
:101CA00030BD00000D48016841F00101016041684C
:101CB0000B4A1140416001680A4A11400160016805
:101CC00021F480210160416821F4FE0141604FF45C
:101CD0001F0181600449C003086070470010024082
:101CE0000000FFF8FFFFF6FE08ED00E0F0B5026827
:101CF000164B174C174D4FF08047984205D0B8420D
:101D000003D0A04201D0A84203D122F070064A6855
:101D10003243984205D0B84203D0A04201D0A84235
:101D200003D122F44074CA6822434C6922F0800235
:101D3000224302608A68C2620A688262984201D1C4
:101D40000969016301214161F0BD0000002C0140DF
:101D5000000400400008004010B501F01F030121FD
:101D6000046A99408C430462016A9A4011430162FB
:101D700010BD000030B5026A22F001020262026A60
:101D80004368846924F073050C682C4322F0020533
:101D90008A682A430A4DA8420BD122F00805CA6876
:101DA00023F440732A434D6922F004021D438B69DA
:101DB0002B434360846149684163026230BD000087
:101DC000002C014030B5026A22F010020262026A61
:101DD000436884690D6824F4E64444EA05248D6868
:101DE00022F0200242EA05120B4DA8420ED1CD6826
:101DF00022F0800242EA05124D6923F4406343EA6F
:101E000085038D6922F0400243EA850343608461C3
:101E100049688163026230BD002C014030B5026A1E
:101E200022F480720262036A4268C46923F4007378
:101E300024F073050C682C438D6843EA05230C4D90
:101E4000A8420ED1CD6823F4006343EA05234D690F
:101E500022F4405242EA05128D6923F4806342EA7B
:101E600005124260C4614968C163036230BD00006D
:101E7000002C014030B5026A22F480520262046AEA
:101E80004268C3690D6823F4E64343EA05238D687D
:101E900024F4005444EA0534064DA84204D14D69A7
:101EA00022F4804242EA85124260C36149680164BB
:101EB000046230BD002C014010B5406A0021C1858C
:101EC000C184FFF7FDFA10BD0168CA6822F4907260
:101ED000CA6001684A6922F001024A61202180F843
:101EE0003A10704710B590F83A10222901D002201C
:101EF00010BD8168B1F5805F11D0016900290168CA
:101F00001FD0496801F07F03816A4A1C82620B700E
:101F1000C18D491E0904090CC18518D02BE0026946
:101F2000816A002A0268526805D0D2B20A80816AAA
:101F3000491C8162ECE7C2F308020A80816A891CAD
:101F4000F7E74A68816A4B1C83620A70E0E7016820
:101F5000CA6822F02002CA600168CA6822F480724E
:101F6000CA6001684A6922F001024A61202180F8B2
:101F70003A10FFF7F1FB002010BD00002DE9F04101
:101F8000044600680169E26821F44051114301618F
:101F90002169A0680843616908432168CA6841F261
:101FA0000C639A430243CA6020684169A26921F424
:101FB0004071114341611E492068642532268842E0
:101FC00002D1FEF797FF01E0FEF784FF00EBC001AE
:101FD00001EB001160686FF018078000B1FBF0F2B0
:101FE000B2FBF5F2B1FBF0F37A4303EB8202B1FBF3
:101FF000F0F306EB0212B2FBF5F2B3FBF5F302F0DD
:10200000F00202EB0312B1FBF0F3B1FBF0F0B0FB16
:10201000F5F0784303EB800006EB0010B0FBF5F021
:10202000216800F00F0010448860BDE8F0810000D6
:102030000038014090F83910212901D00220704762
:102040008168B1F5805F016A0BD04A1C02620268A8
:1020500009785160C18C491E0904090CC1840ED055
:1020600017E009880268C1F308015160016900297D
:10207000016A02D0491C0162ECE7891CFBE7016898
:10208000CA6822F08002CA600068C16841F040015D
:10209000C160002070472DE9F041984617460E4672
:1020A0000446069D1DE0681C1BD02DB1FEF7DEFD29
:1020B000A0EB0800A84214D92068C16821F4D071AF
:1020C000C1602068416921F001014161202084F84C
:1020D000390084F83A00002084F838000320BDE875
:1020E000F0812068006836EA000004D00020B84281
:1020F000D9D00020F3E70120F9E700000148FFF7FD
:10210000E1B900000C010020FEE700000FB4054B10
:1021100010B503A9044A029800F02CF810BC5DF831
:1021200014FB000035240008840000200907090E74
:10213000002804DB00F1E02080F80014704700F074
:102140000F0000F1E02080F8141D70470048704730
:102150008800002002E008C8121F08C1002AFAD136
:1021600070477047002001E001C1121F002AFBD117
:10217000704700002DE9FF4F8DB09B460F46044687
:10218000002606E025280BD05A460F999047641C7C
:10219000761C20780028F5D111B03046BDE8F08FCC
:1021A0000025A8460122984900E0054314F8013FA4
:1021B000203B02FA03F00842F7D120782E2817D1ED
:1021C00014F8010F45F004052A280ED06FF02F02F5
:1021D0002078A0F1300109290AD808EB880102EB28
:1021E000410100EB0108641CF2E757F8048B641C02
:1021F00020786C280DD004DC4C2812D06A2811D12C
:1022000004E074280DD07A280CD10AE045F40015BA
:1022100007E0617845F48015814202D1641C05F520
:102220008015641C2278692A45D008DC002AB3D0C6
:10223000582A69D0632A10D0642A08D13BE0702A5A
:1022400067D0732A13D0752A5CD0782A5CD01046E8
:102250005A460F999047761CD3E017F8040B8DF877
:10226000000000208DF80100E946012003E057F846
:10227000049B4FF0FF3069074FF0000501D40AE0DE
:102280006D1C45450DDA8542FADB19F80510002969
:10229000F6D106E06D1C8542FCDB19F8051000291B
:1022A000F8D12E4404E019F8010B5A460F999047D3
:1022B0006D1EF8D2A5E00A200021CDE90801C5F382
:1022C000025002280DD001CFC117031E71F1000387
:1022D0000DDA4FF0000CD0EB0C006CEB01012D235C
:1022E00008E0FF1D27F00707F7E80201EDE72B05DF
:1022F00004D52B238DF8283001233BE0EB0739D0A0
:102300002023F7E70A2000E010200021CDE9080192
:1023100007E01020002145F00405CDE908014FF049
:102320000808C5F3025002280FD001CF00214FF05A
:10233000000A2B071FD5702A0DD0DDE908C38CF0E9
:10234000100C5CEA030C0CD015E0FF1D27F007070A
:10235000F7E80201EBE740228DF828204FF0010A50
:102360000BE050EA010306D030238DF828308DF8B9
:10237000292002239A46582A04D024A20DF12009CC
:102380000B9209E026A2F9E7DDE90823FEF7FFF842
:102390000B9B9B5C09F8013D50EA0102F4D1ADEBC7
:1023A000090020300890680701D44FF0010808990F
:1023B000884502DDA8EB010000E0002080460025F2
:1023C00006E00AA85A46405D0F9990476D1C761C9E
:1023D0005545F6DB04E030205A460F999047761CAD
:1023E000B8F10001A8F10108F5DC05E019F8010BCE
:1023F0005A460F999047761C0899481E0890002964
:10240000F4DC641CC5E600000928010030313233D9
:102410003435363738396162636465660000000020
:10242000303132333435363738394142434445460A
:102430000000000013B54FF6FF7301226946024801
:10244000FFF7A8F900981CBDCC0000202DE9F04151
:10245000454D4FF4805739462846FEF7FDFB08B13D
:10246000012600E00026414C4FF400412046FEF7D3
:10247000F3FB00B1012040EA46064FF48068414674
:102480002846FEF7E9FB00B1012040EA46064FF47A
:1024900000512046FEF7E0FB00B1012040EA46066D
:1024A0004FF480412046FEF7D7FB00B1012040EAFF
:1024B00046064FF400612046FEF7CEFB00B1012036
:1024C00040EA460639462046FEF7C6FB00B1012029
:1024D00040EA46064FF400712046FEF7BDFB00B10E
:1024E000012040EA460641462046FEF7B5FB00B112
:1024F000012040EA460680212046FEF7ADFB00B1F0
:10250000012040EA46064FF480712046FEF7A4FB06
:1025100000B1012040EA460401212846FEF79CFB59
:1025200000B1012040EA440402212846FEF794FB52
:1025300000B101200E4D40EA440420212846FEF758
:102540008BFB08B1012100E0002141EA4404102185
:102550002846FEF781FB00B10120064940EA44000D
:102560000843BDE8F0810000000C01400018014064
:10257000001001400000FFFF0EB5FEF785FB0026AE
:10258000FFF768FBFFF766F97D487C494FF4E134BB
:10259000002580E832000C27C560C0E9045785613A
:1025A000C561FFF717F876487649403080E8320079
:1025B000C560C0E904578561C561FFF70BF8FFF7F7
:1025C00007FA6F48012270494030FFF79BF832202C
:1025D000FEF740FA6C496A480A230122891E4030FE
:1025E000FFF7D8F869A0FFF791FD674C4FF6FF7829
:1025F000DFF8A091DFF8A0A10127E41EFFF726FF76
:10260000C0F30E000021C04386421FD04FEA0006EF
:1026100007FA01F2024206D16279491C521C62712A
:102620000F29F5DB12E0607900011030C0B240F0F4
:102630000D01617159A0FFF769FD534950484346A8
:102640000122891C4030FFF7A5F86571657120797A
:102650000028D3D04A48803000780028CED0FFF739
:10266000F9F86420FEF7F6F945488030FDF792FD51
:10267000C0F30411A06100F00F00C4E90410404849
:10268000A1688030FEF716F90146E06045A0FFF72B
:102690003DFDE068411E0D2906D328B10D390829FA
:1026A0000ED2FEF759F925E0FFF7D6F9A0703649AA
:1026B000334843460122491E4030FFF76BF819E0CA
:1026C000A0694112C90712D0C0F3812002900128ED
:1026D00001D002280BD120698346142803DB06D1E0
:1026E000606998B103E0BBF1040F0CDCF8D02FA0B7
:1026F000FFF70CFD224880218030FDF72AFD257070
:102700002571A7707AE760690A28F3D2FDF7D7FE32
:10271000FDF70EFF0022294BFDF762FECDE9000117
:102720005846FDF7D5FEDDE90023FDF740FDFDF736
:1027300012FF0299012910D0FDF7FAFE00224B4644
:10274000FDF7DCFD00225346FDF7D5FDFDF7D1FE78
:10275000206180B2FEF7E2F8CCE7FDF7E9FE002247
:102760004B46FDF7CBFD00225346FDF7C4FDFDF7B8
:10277000C0FE206180B2FEF7B5F8BBE7003801402B
:10278000CC000020004400405B00002068656C6CB9
:102790006F0D0A000000344000407F4030782578FB
:1027A0000D0A000025640D0A000000006E6F206312
:1027B0006F6D6D616E640D0A000000000000244022
:1027C00000000000000000000102030406070809E1
:1027D000000000000102030400404040404040402F
:1027E00040404141414141404040404040404040E4
:1027F0004040404040404040400502020202020288
:1028000002020202020202020220202020202020D6
:1028100020202002020202020202909090909090EA
:1028200010101010101010101010101010101010A8
:10283000101010100202020202028888888888881C
:102840000808080808080808080808080808080808
:10285000080808080202020240000000D927000808
:10286000303130003032300032303100333031001E
:102870003530310030313100303231003434310004
:1028800032303200303132003032320034343200F3
:1028900030313300303233003434330030323400DE
:1028A00034343400303037003030380030313800C4
:1028B0003030390030313900D828000800000020BD
:1028C0008C00000054210008642900088C000020BE
:1028D0004405000064210008A4280008A828000876
:1028E000B028000860280008742800088428000820
:1028F00090280008AC280008B428000864280008C4
:102900007828000888280008942800089C280008D7
:102910007C2800088C28000898280008A0280008B7
:102920007028000868280008802800086C28000823
:102930000001010000000000000000000000000095
:102940000000000000000000000000000100000086
:1029500010000000000000000024F400000000004F
:042960000000000073
:04000005080000ED02
:00000001FF
